:020000040800F2
:10000000000002202D28000879280008792800081F
:1000100079280008792800087928000800000000E5
:100020000000000000000000000000007928000827
:1000300079280008000000007928000879280008C5
:10004000792800087928000879280008792800080C
:1000500079280008792800087928000879280008FC
:1000600079280008792800087928000879280008EC
:1000700079280008792800087928000879280008DC
:10008000792800087928000879280008A5110008B7
:10009000A91100087928000899110008792800089A
:1000A00079280008792800087928000879280008AC
:1000B000792800087928000879280008792800089C
:1000C000792800087928000879280008792800088C
:1000D000792800087928000879280008792800087C
:1000E000792800087928000879280008792800086C
:1000F000792800087928000879280008792800085C
:10010000792800087928000879280008792800084B
:10011000792800087928000879280008792800083B
:10012000792800087928000879280008792800082B
:10013000792800080000000000000000B911000844
:10014000BD11000879280008AD11000879280008C1
:1001500079280008792800087928000879280008FB
:1001600079280008792800087928000879280008EB
:100170007928000879280008792800080000000084
:1001800000000000792800080000000000000000C6
:10019000792800080000000000000000792800080D
:1001A00000000000000000000000000079280008A6
:1001B000792800087928000879280008792800089B
:1001C0007928000810B5054C237833B9044B13B1D6
:1001D0000448AFF300800123237010BD900B002072
:1001E0000000000000A40008084B10B51BB108492E
:1001F0000848AFF300800848036803B910BD074BF7
:10020000002BFBD0BDE81040184700BF00000000E5
:10021000940B002000A400088C0B002000000000BC
:10022000154B002B08BF134B9D46A3F5803A0021C8
:100230008B460F461348144A121A03F01FFE0F4B49
:10024000002B00D098470E4B002B00D09847002081
:10025000002104000D000D48002802D00C4800F0D9
:100260009EFD03F05FF92000290000F0FFFE00F082
:1002700093FD00BF00000800000002200000000005
:100280005D100008900B0020900F00209F0D0008CB
:1002900000000000C021014801F0D3B9E80B0020A4
:1002A00010B50E4C23686BB90D4A0E481388013304
:1002B00003F00F0313800C4A32F8131001F0C1F958
:1002C0000A4B23600A4B5A681B6812681A421EBF09
:1002D000236803F1FF33236010BD00BFCC01002071
:1002E000AC0B0020E80B0020CC9A0008404B4C00DF
:1002F000CC0B002008B5FFF7CDFFFFF7D1FFFCE7DF
:1003000038B5104C1C252A460021204603F0B6FDC6
:100310002046052100F0E4F80B4C00F091FB01238E
:1003200019467F22094801F076F900F09FFB2A4622
:100330000021204603F0A2FD20462D21BDE83840D3
:1003400000F0BBB8B00B0020CC0B0020E80B002065
:10035000C36810B504460BB19B689847204610BD92
:1003600003681B69184703689B69184703689B6A01
:10037000184700290CBF6FF01800002070470120BB
:100380007047704738B5044648B100F15805A5429A
:1003900005D02C3D05F11800FFF7DAFFF7E72046FE
:1003A00038BD38B500250446294640F8045B2822AC
:1003B00003F064FD1022294604F1180003F05EFDED
:1003C000204638BD10B50A4C2046FFF7EAFF04F17D
:1003D0002C00FFF7E6FF0023A3652046E365054AEE
:1003E00084F860300449BDE8104000F0D3BC00BF81
:1003F000FC0B0020C80100208503000803680122CF
:100400001B6900211847036800221B691146184721
:10041000EFF3108372B6064A117839B903F001037D
:10042000044983F001030B7001231370704700BF70
:10043000610C0020600C002008B5EFF31083DB078F
:1004400004D436220549064800F07AFA054B00220A
:100450001A70054B1B7803B162B608BDEC9A000810
:10046000159B0008610C0020600C002070B50E4642
:100470000446154600F05EFF013609D020460021F3
:1004800000F07CFF29462046BDE8704000F072BFB6
:1004900070BD38B504460D4603680AB1826801E0B4
:1004A000C2681B0420461360012100F067FF294643
:1004B0002046BDE8384000F05DBF0022FFF7D6BF00
:1004C00070B50E460446154600F034FF013606D0DE
:1004D0002A4620460021BDE87040FFF7DABF70BD14
:1004E0000022FFF7EDBF000013B50446013019D01C
:1004F000B1F900305A1C0ED09C420AD120468968BE
:1005000000F08EFF0021204602B0BDE8104001F04F
:1005100023B80C31ECE7002300932246024903483C
:1005200000F086FB02B010BD2F9B00083001018057
:10053000884207B50ED0431C0BD001310AD00023EE
:10054000024600930549064800F072FB4FF0FF3069
:1005500000E0084603B05DF804FB00BF409B0008C4
:1005600030010180B1F900305A1C05D0834201D11D
:10057000486870470C31F5E718467047421C13B5C0
:1005800004460BD0FFF7EEFF431C044606D10023C0
:10059000024600930349044800F04AFB204602B09B
:1005A00010BD00BF519B0008300101802DE9F74FBD
:1005B00090E8080404465B68984763681B6A9842A1
:1005C0006BD0DAF82030DAF80860CAF82000C3EB04
:1005D0000008DAF80C30324808EA0308864244463C
:1005E0004FF0000553D0DAE90A349AF83AB0A8FB84
:1005F0000089CDE900340027BBF1000F22D05A4614
:100600004046494608F022FCDDE9002312EB0802CF
:1006100043EB090390465A46994604460D4608F0B6
:1006200021FCB8EB000069EB0101B94208BFB04200
:1006300005D3013445F10005801B61EB0701CAE9D0
:100640000A0124E032463B464046494609F0A6F8F6
:10065000DDE9002312EB080243EB090390469946BB
:10066000A6FB0023B8EB020806FB013369EB030984
:10067000B94508BFB04504460D4606D3441C41F1B8
:100680000005B8EB060869EB0709CAE90A89DAE947
:100690000C23A4185D41CAE90C4503B0BDE8F08FF6
:1006A00040420F00824206D98A420BD9884294BF49
:1006B000002001207047884206D98A428CBF002062
:1006C0000120704701207047002070472DE9F04756
:1006D000466896F839300746002B5BD1FFF766FF76
:1006E0007C68D7F800A06168002949D0D4E90C23C0
:1006F000D1E900894B4508BF42452CD2B8EB02082E
:1007000069EB0309D4E906234B4508BF4245256937
:100710001AD3A368204A934203D1454528BF4546D2
:1007200012E094F83A2022B14046494608F09AFB7C
:1007300003E0A3FB080103FB0911174A002309F09A
:100740002DF8854228BF0546226AE36815441D40FE
:10075000336AAB4202D1DAF814300EE0DAF8103026
:10076000284698473B685B6898472A460146306AA6
:10077000FFF798FF70B13B685B69BDE8F047184729
:10078000306A3369DAF810200344F068BDE8F047B6
:1007900018401047BDE8F08740420F0003682DE97C
:1007A000F74F04461B68984723689B69984705687C
:1007B00006462DB9292230493048314D00F0C0F8A5
:1007C0001F23012202FA03F1A9425FFA83FB02D040
:1007D000013BF7D19B4677683B1F1C2B05D937227D
:1007E0002549264800F0ACF820273B1F072615F1C5
:1007F000FF30DFF88CE006FA03F64FF0000343F118
:10080000FF31CEFB06012A4608F0C8FFD4F8048069
:1008100023684FF0000AC8F800A0C8F804A05B687D
:10082000CDE9000198476368C8F820004FF000093F
:100830004FF0000883F83AB0C3E90A899D603A4650
:100840000120002108F00EFBDDE900236568013876
:10085000C5E906230123E8602E612046C5E90C891D
:1008600085F839A085F83830FFF7A0FE204603B0A0
:10087000BDE8F04FFFF72ABF8F9B000833A10008A7
:1008800040420F0070B5044600F0DAF82368DB68D8
:1008900098476368012283F8392063685B68A3B1D5
:1008A0002046FFF783FE65686E68D5E90C01D6E93E
:1008B0000023994208BF904207D3F3686B602B680E
:1008C000002BEAD0B0689847E7E76368002220462B
:1008D00083F83920FFF7FAFEBDE8704000F0C6B893
:1008E000436893F8383010B504460BB9FFF756FF4C
:1008F00000F0A6F82046FFF759FE00F0B7F863684D
:10090000D3E90C0110BD08B5FFF7EAFF08BD0000F0
:1009100000487047CC9B0008024B1B680BB1024893
:1009200018477047D0010020CC9B0008002070477A
:1009300002F09CBE03F0F0BA02F04CBB02F030B9FA
:1009400070B504460D46164600F07AF833462A463E
:100950002146034800F05AF8BDE8704000F002B8A4
:10096000D49B000810B588B000F06AF8052101A8F2
:10097000FFF7B6FD0424039B019A1A60962000F04D
:100980008BFB019B049A1B041360962000F084FBF0
:10099000013CF0D10424039B019A1A604FF4C87003
:1009A00000F07AFB019B049A1B0413604FF4C8709B
:1009B00000F072FB013CEED1DCE7000030B50D46E3
:1009C000A1B0044600F03CF82B4622468021684640
:1009D00005F074F9051E03DC00F048F821B030BDC5
:1009E000084B1B6823B903220221074800F0CAFE06
:1009F00000241DF804100448013401F005FFA5424D
:100A0000F7D1E9E7400D0020780D00200FB407B5BD
:100A100004A951F8040B0191FFF7D0FF03B05DF872
:100A200004EB04B07047EFF3108000F0010080F099
:100A300001007047EFF30580003018BF01207047B8
:100A400010B5074C2368013304D1552205490648E7
:100A5000FFF776FFFFF7DCFC23680133236010BD4E
:100A6000A80C0020059C0008279C0008054B1A686C
:100A700032B11A68013A1A601B680BB9FFF7DCBC87
:100A8000704700BFA80C00202DE9F0411B4C1C4E04
:100A9000237836EA200628BF0646012B8EB00F4683
:100AA000904600D1FEE7174DFFF7CAFF01232370E0
:100AB000FFF7DCFF2B6800220133342101A82B60F3
:100AC00003F0DCF92B680196012BCDF80880039721
:100AD00004D1342201A90C4803F0D2F8342201A930
:100AE0000A4803F0CDF80A4B1B680BB1074898473A
:100AF000002020700EB0BDE8F08100BFAC0C0020DB
:100B00000101FF80B00C0020EC0C0020B40C002090
:100B1000E80C002073B5274C2168C1F34173032B07
:100B20000CBF4D428DB2C1F307432A460646224808
:100B3000FFF76CFF6FF498731D44072D1ED8DFE894
:100B400005F004070A0D10161319A1681B4813E0DD
:100B5000A1681B4810E0A1681A480DE0A1681A4876
:100B60000AE0A168194807E0A168194804E0A168F3
:100B7000184801E0A1681848FFF748FF3046FFF722
:100B800045FF61681548FFF741FFA1681448FFF76A
:100B90003DFFE3690193A369009304F10C010EC9C1
:100BA0001048FFF733FF104802B0BDE87040FFF770
:100BB0002DBF00BFB40C0020589C0008A99C000861
:100BC000BE9C0008CD9C0008DB9C0008ED9C000842
:100BD000009D0008139D0008219D0008369D000817
:100BE000469D0008599D0008A89D00080FB437B520
:100BF0000C4D2978724679B90B48FFF745FF0B4831
:100C0000FFF788FF012407A906982C700191FFF7D0
:100C1000D5FE204600F0C0F803B0BDE8304004B077
:100C2000704700BFAC0C00200001FF80C29D00088F
:100C300010B50C4611467246FFF726FF68B92046EC
:100C4000FFF768FFFFF7F6FE10B9FFF7ECFE08B9F3
:100C500030BFFDE7012000F09FF8014810BD00BF44
:100C60000F01FF806FF01C0070476FF01500704798
:100C700001207047002070477047000070B515468E
:100C80000C468E18B44205D014F8011B024801F03E
:100C9000BBFDF7E7284670BD780D002038B58DB252
:100CA000EA070DD5084800F0E9FC48B10124EB063D
:100CB00008D5054800F0F8FC20B144F0100401E02C
:100CC0000024F4E7204638BD780D002010B5044616
:100CD00002F0C4FC204610BD10B50C462AB10448F1
:100CE00001F080FD2070012010BD104610BD00BF36
:100CF000780D002038B51D46074B0360074B1B6875
:100D0000044633B9064800F03DFD2946044800F08A
:100D100001FD204638BD00BFE89E0008400D0020C0
:100D2000780D002000207047002070470C4A13689F
:100D300010B51844EFF30881884205D3094B0C2203
:100D40001A604FF0FF3010BD0749096821B1074C08
:100D5000246821448842F1D21060184610BD00BFBB
:100D6000D40200208C0F0020200D0020280D002030
:100D7000074C08B523680546986802F043F82368D5
:100D8000D86802F03FF80DB1FFF7ECFDFEE700BFB9
:100D9000080700200120704708B5FFF7E9FF012090
:100DA00070477047704708B5FFF7FBFF08BD08B5EF
:100DB000FFF7F8FF08BD000010B5037803F0030348
:100DC000012B04460CD02BB140F2A952054906482C
:100DD000FFF7B6FD237843F002032370012010BD16
:100DE000002010BDE19D0008059E000810B50378A5
:100DF00003F00303022B044605D040F2B15205492B
:100E00000548FFF79DFD237823F0030343F001031A
:100E1000237010BDE19D00082B9E00083F2870B58F
:100E2000044629DC164A52F82030591C154625D1B3
:100E3000022823DCFFF778FFD8B92046FFF772FFBE
:100E4000B8B9104E3368DB0712D43046FFF7B4FF51
:100E500070B1032202214FF416530B48FFF74AFFEB
:100E60003046FFF7C3FF094A09490748FFF792FFD9
:100E7000054845F8240070BD002070BD184670BDBF
:100E8000D40100202C0D0020240D0020C8010020DA
:100E9000790C000838B50546FFF7C0FF0B4B00245E
:100EA00043F8254020B901F0ABFE0923036008E0B8
:100EB00003685B699847051E06DA01F0A1FE6D42E2
:100EC00005604FF0FF3038BD204638BDD40100200A
:100ED000FFF7E0BF38B50C461546FFF79FFF20B976
:100EE00001F08EFE092303600AE003682146DB68F7
:100EF0002A469847041E06DA01F082FE6442046026
:100F00004FF0FF3038BD204638BD08B5131E06DA55
:100F100001F076FE162303604FF0FF3008BD04D0C9
:100F2000FFF7D8FF40EAE07008BD184608BD38B5A5
:100F30000C461546FFF772FF20B901F061FE092348
:100F400003600AE0036821469B682A469847041E0E
:100F500006DA01F055FE644204604FF0FF3038BD00
:100F6000204638BD002A08B503DBBDE80840FFF77E
:100F7000DEBF01F045FE162303604FF0FF3008BDD1
:100F800010B5FFF74BFF044620B901F039FE0923E5
:100F900003600AE00368DB699847041E05DA01F084
:100FA0002FFE64420460002010BD204610BDFFF7F4
:100FB000E7BF38B50C461546FFF730FF20B901F002
:100FC0001FFE092303600AE0036821461B692A46C5
:100FD0009847041E06DA01F013FE644204604FF0E5
:100FE000FF3038BD204638BDFFF7E3BF38B50D46AA
:100FF000FFF714FF044630B901F002FE0923036035
:101000004FF0FF3038BD0368DB699847002814BFF4
:101010004FF400534FF400436B60236820469B6AF3
:1010200098472861002038BDFFF7E0BF7047704740
:10103000074B08499A68084810B5043A52F8044F1B
:1010400041F8044F8142F9D14FF000529A6010BD2F
:1010500000ED00E0FCFFFF1FC001002008B5FFF716
:10106000E7FF00F0AFF9FFF7E2FF08BD08B5FFF7B3
:10107000DDFFBDE80840FFF73DB970B50446FFF756
:1010800047FC0646FFF73FFC05463046FFF73BFCB2
:10109000401BA042F9D370BD4FF47A735843FFF759
:1010A000ECBF000043692DE9F0410D46D907044625
:1010B00029D583683349344A1940836880681A40C7
:1010C000324B03402F48814204BF0120A0602E48CC
:1010D000824204BF4FF48070A0602C48834204BF5A
:1010E0004FF48030A0602748814205D026498A42CB
:1010F00002D0264A934206D1254B264A1B6852F855
:10110000250001219847E2686369920708D09F078C
:1011100006D51F4B1F4A1B6852F82500002198472F
:10112000A169626963698E070AD5900508D519041B
:1011300006D5174B174A1B6852F82500052198471A
:10114000A3696669626913F0040706F4806609D032
:1011500046B1120406D50E4B0E4A1B6852F8250004
:101160000721984763695FB156B11B0408D5084B46
:10117000084A1B6852F825000221BDE8F0411847D3
:10118000BDE8F08103000004000300080000031024
:10119000300D0020340D002000210148FFF782BFF0
:1011A00000640040FFF7F8BFFFF7F6BF01210148D8
:1011B000FFF778BF00680040FFF7F8BFFFF7F6BF02
:1011C00030B5046891FAA1F3B3FA83F391FAA1F16F
:1011D0000325B1FA81F15B0005FA03F3490024EA23
:1011E000030302FA01F11943016030BD00B5002389
:1011F00089B007286DD8DFE800F004111E2B3845B0
:10120000525F0093364B37481A6B42F001021A6363
:101210001B6B03F001030093009B5EE00193304BD6
:1012200031481A6B42F002021A631B6B03F002038F
:101230000193019B51E00293294B2C481A6B42F019
:1012400004021A631B6B03F004030293029B44E045
:101250000393234B26481A6B42F008021A631B6B58
:1012600003F008030393039B37E004931C4B2148CE
:101270001A6B42F010021A631B6B03F01003049305
:10128000049B2AE00593164B1B481A6B42F0200280
:101290001A631B6B03F020030593059B1DE0069367
:1012A0000F4B16481A6B42F040021A631B6B03F097
:1012B00040030693069B10E00793094B10481A6BF6
:1012C00042F080021A631B6B03F080030793079BB5
:1012D00003E00C48FFF78AFC002009B05DF804FB2E
:1012E00000380240000002400004024000080240B2
:1012F000000C02400010024000140240001802409E
:10130000001C0240309F0008431C10B5044604D165
:10131000762206490648FFF713FB2046002100F01D
:101320007FF804F00F040120A04010BD519F000879
:10133000789F000870B504464B1C0E46218216D0DB
:10134000C1F30310FFF752FF05463046FFF7DCFFFD
:10135000238A074A656103F00F03206052F82330A7
:10136000A36105F1100318356360A560E56070BDE9
:10137000B09F0008B0F9100000F0EEB80A4601B1C5
:10138000012281694069FFF71BBF08B501F07CFBB2
:10139000002008BD08B50A4B1B684BB1FFF7B8FA2F
:1013A000FFF79EFA4FF47A72002308F0F7F908BDB0
:1013B00001F0BEFB4FF47A73B0FBF3F008BD00BF41
:1013C0003C0D002008B501F0D3F900F0B9FA01F0A6
:1013D00033FB01F0CDF9024B01221A6008BD00BFBA
:1013E0003C0D002030B5C46891FAA1F3B3FA83F341
:1013F00091FAA1F10325B1FA81F15B0005FA03F33B
:10140000490024EA030302FA01F11943C16030BD27
:10141000012A02D0022A18BF0022FFF7E3BF000012
:101420002DE9F0410E46411C044604D13E224649B6
:101430004648FFF785FA04F00F08454BC4F3031044
:1014400053F82870FFF7D2FE06F0070504468068BF
:1014500097FAA7F2B2FA82F297FAA7F303215200A1
:1014600001FA02F2B3FA83F320EA02015B000222DE
:1014700002FA03F30B43A360032D3AD8DFE805F02B
:101480003E02043701233AE0B8F1070FC6F3032107
:1014900016D9D4F824E03B0A93FAA3F0B0FA80F00E
:1014A00093FAA3F20F23B2FA82F2800003FA00F05B
:1014B00092002EEA000001FA02F30343636214E093
:1014C000206A97FAA7F2B2FA82F297FAA7F34FF0DE
:1014D0000F0EB3FA83F392000EFA02F29B0020EA99
:1014E000020201FA03F313432362022307E00323FA
:1014F00005E0672214491748FFF722FA0023206805
:1015000097FAA7F1B1FA81F197FAA7F24FF0030E1B
:10151000B2FA82F249000EFA01F1520020EA01010A
:101520009340013D0B43012D236005D863683207CA
:101530004CBF3B43BB436360C6F3011239462046B0
:10154000BDE8F041FFF764BF8B9F0008789F00085B
:10155000B09F000833A10008431C70B506460D4635
:1015600004D188221C491D48FFF7EAF906F00F0252
:101570001B4BC6F3031053F82240FFF737FE04FB62
:1015800004F1026801EB41031340B3FBF1F3013BAB
:10159000012B0AD8EB1E022B436802D82343436079
:1015A00003E023EA0403436003E0032D01D1012299
:1015B00006E0012DFBD0052D01D0022D05D1022220
:1015C0002146BDE87040FFF723BF21460022BDE859
:1015D0007040FFF707BF00BF8B9F0008789F00088F
:1015E000B09F0008F8B505460E4629720024012771
:1015F0006A6807FA04F3134209D02878012E04EB35
:1016000000100CBF3146002100B2FFF709FF013482
:10161000102CEDD1F8BDF8B5044608461D460E461F
:101620001746FFF7E3FD00F1100314302061267028
:1016300067602572E36029462046BDE8F840FFF761
:10164000D1BF10B5046942682368594011404B402E
:10165000236010BD0FB407B5064B07491B6805AAE8
:10166000D868019204F0AEFA03B05DF804EB04B060
:10167000704700BF08070020F09F00084368094A30
:101680009B0182B0D3581A68120706D50022019236
:101690001A6801925A680192019A1868C0F34010C2
:1016A00002B07047C40D00204368034A9B01D35821
:1016B0001868C0F3C0107047C40D00204268144978
:1016C000920110B404685450531882685A60C2687A
:1016D0009A600269DA6042691A61026A9A610022BC
:1016E000DA84DA619A84DA859A85B0F91A200132AF
:1016F00001D1082205E0B0F9182001320CBF042204
:101700000C225A6118465DF8044B01F002B800BF84
:10171000C40D002010B581600C46FFF7CFFF28B143
:1017200021460348BDE81040FFF794BF10BD00BF3D
:10173000F09F0008124B984217D0A3F54C439842F3
:1017400015D003F58063984213D003F58063984267
:1017500011D003F5806398420FD003F544439842BB
:101760000CBF05204FF0FF3070470020704701206C
:10177000704702207047032070470420704700BF65
:1017800000100140F0B50E4687B004465C49304673
:101790001546FEF7F3FE5B4907462846FEF7EEFEC8
:1017A00001463846FEF7C4FE2060013004D13D22D8
:1017B00055495648FFF7C4F8022E0BD0032D09D027
:1017C0004F490220FEF7DAFE874205D15048FFF765
:1017D0000DFA01E0012700E000274E4B20689842F7
:1017E0004FF000030BD100934B4B5A6C42F01002A8
:1017F0005A645B6C03F010030093009B3BE0474A84
:1018000090420BD10193444B1A6C42F400321A649B
:101810001B6C03F400330193019B2CE0404A90427F
:101820000BD102933C4B1A6C42F480221A641B6C5D
:1018300003F480230293029B2CE03A4A90420BD19E
:101840000393354B1A6C42F400221A641B6C03F4A8
:1018500000230393039B1DE0334A90420BD1049372
:101860002D4B1A6C42F480121A641B6C03F4801323
:101870000493049B0EE02D4B98420BD1002305935B
:10188000254B5A6C42F020025A645B6C03F0200333
:101890000593059BFFF74EFF0028606004DAA42241
:1018A00019492348FFF74CF815493046FEF71CFE4E
:1018B00014492846FEF718FE721C03D00121304659
:1018C000FFF74AFE6B1C03D001212846FFF744FEB8
:1018D0004FF41653A3600023E36023616361236226
:1018E000268365832046FFF7E9FE3FB1114B12487E
:1018F00001221A6021464C2202F0C2F907B0F0BD65
:10190000C8A1000850A10008A9A00008D2A00008A2
:10191000EEA00008001001400038024000440040E2
:1019200000480040004C00400050004000140140BE
:1019300023A10008400D0020780D00207047000012
:1019400008B50B4B1A6842F400721A601A6842F428
:1019500080621A601A6842F480721A60032000F0F4
:1019600009F80F20FFF711FDFFF7E8FF002008BD81
:10197000003C0240074AD36823F4E0631B041B0CBD
:1019800043F0BF63000243F4003300F4E06003431C
:10199000D360704700ED00E037B500230193184B8A
:1019A000184C1A6C42F080521A641B6C03F080537E
:1019B0000193019B144B01221A60FFF7EBFC0546D3
:1019C0006368DA0307D4FFF7E5FC401BB0F57A7FC4
:1019D000F6D9032011E00D4B0A4C01221A60FFF7E3
:1019E000D9FC054663689B0306D4FFF7D3FC401B74
:1019F000B0F57A7FF6D9ECE7002003B030BD00BF28
:101A0000003802400070004040000E4244000E4288
:101A10002DE9F0410D46044610B90120BDE8F081E2
:101A2000434B1A6802F00F028A4217D322689607C6
:101A30001CD5404B12F0040F1EBF996841F4E051D1
:101A40009960100742BF996841F4604199609968B4
:101A500021F0F000A1680143996007E0CAB21A7052
:101A60001B6803F00F039942D7D1DFE7D10706D4F3
:101A70002F4B1A6802F00F0295422CD332E06368B4
:101A80002C4A012B03D1126812F4003F08E0991E82
:101A90000129126802D812F0007F01E012F0020F53
:101AA000BBD0244EB26822F003021343B360FFF7A9
:101AB00071FC41F288380746B368626803F00C0392
:101AC000B3EB820FD4D0FFF765FCC01B4045F3D9C0
:101AD0000320BDE8F081EAB21A701B6803F00F031F
:101AE0009D429AD121684A0706D51248836823F49B
:101AF000E052E368134383600B0707D50D4A216961
:101B0000936823F4604343EAC103936000F05CFAF6
:101B1000084B094A9B68C3F30313D35CD840074BB7
:101B200018600F20FFF731FC0020BDE8F08100BFF6
:101B3000003C02400038024035A10008D8020020D5
:101B4000044B054A9B68C3F38223D35C034A1068A5
:101B5000D84070470038024045A10008D802002054
:101B6000044B054A9B68C3F34233D35C034A1068B5
:101B7000D84070470038024045A10008D802002034
:101B80000F2303600B4B9A6802F0030242609A68CD
:101B900002F0F00282609A6802F4E052C2609B6830
:101BA000DB0803F4E0530361034B1B6803F00F03EE
:101BB0000B60704700380240003C024003682DE98A
:101BC000F74313F0010604460BD07D49866BD1F82C
:101BD0008C2022F0C0623243B6FA86F6C1F88C201F
:101BE00076099A070BD57648E16BD0F88C2022F065
:101BF000C0520A430029C0F88C2008BF012613F008
:101C0000040512D06E49256BD1F88C20B5F5801FE4
:101C100022F4401242EA050218BFB5FA85F5C1F870
:101C20008C2012BF6D09002501261F0710D56448BE
:101C3000616BD0F88C2022F440020A43B1F5800F8A
:101C4000C0F88C2003D0002908BF012500E0012640
:101C500098065CD500230193594B5A4F1A6C42F0F9
:101C600080521A641B6C03F080530193019B3B6804
:101C700043F480733B60FFF78DFB80463B68D905DA
:101C800007D4FFF787FBC8EB00000228F6D9032032
:101C900093E14B4F3B6F13F440730FD1226C02F46E
:101CA0004073B3F5407F464B28D1996821F4F81072
:101CB00022F0704121F44071014322E0226C02F4D1
:101CC00040729342EAD03B6F3F4A0121116023F4F6
:101CD0004073002111603B673B6FDA07DED5FFF7E9
:101CE00059FB41F2883980463B6F9B07D6D4FFF7FA
:101CF00051FBC8EB00004845F6D9C8E7996821F4C4
:101D0000F8119960196FC2F30B020A431A6723682E
:101D1000DF0642BF2D4B94F858201A60236818063E
:101D200008D52748D0F8942022F44001E26C0A43F9
:101D3000C0F89420590608D52148D0F8942022F004
:101D40008061A26C0A43C0F89420DA050CD51C48C7
:101D5000616DD0F8942022F000620A43B1F1006F67
:101D6000C0F8942008BF01259F0508D51448D0F875
:101D7000942022F08051626C0A43C0F894205805E8
:101D800002D4012E15D10BE00D48216DD0F894201E
:101D900022F000520A43B1F1005FC0F89420F0D164
:101DA0000B4E074F00233360FFF7F4FAB14680462D
:101DB00017E0B3F5006FF3D0012D40F0BA809EE03C
:101DC0000038024000700040400E4742E011474298
:101DD00068004742FFF7DEFAC8EB000002283FF632
:101DE00056AF3B681901F5D42168CA0701D5A36B2A
:101DF0001BB18B0716D5E36BA3B96069DFF8C0E1AF
:101E0000A768DEF88430DEF88420000740EA8717F0
:101E1000606802F0706207433A4303F440331343AF
:101E2000CEF884304F0703D5236BB3F5801F05D060
:101E30000E0720D5636BB3F5800F1CD12769604B6B
:101E4000A668D3F88420D3F884003F0647EA8617B3
:101E5000666800F0E0403743384302F44032024302
:101E6000C3F88420D3F88C20A06A22F01F02013826
:101E70000243C3F88C2048051CD5236DB3F1005FE5
:101E800018D1E0684E4FA668D7F88430D7F8842080
:101E9000400800F1FF3C606840EA861040EA0C40D0
:101EA00002F0E042C3F301430243013342EA4363D9
:101EB000C7F88430090511D52169A368090641EAEC
:101EC000831263681343626943EA0272E3685B0842
:101ED000013B42EA03433A4AC2F884300123C9F87D
:101EE0000030FFF757FA364E074633681A013FF5C0
:101EF00063AFFFF74FFAC01B0228F6D9C7E6314D92
:101F00002F4E00232B60FFF745FA074633689B00EE
:101F100011D42068460714D4010715D4C20530D463
:101F200001232B60FFF736FA254C054623689B00FA
:101F30003DD5002041E0FFF72DFAC01B0228E5D96E
:101F4000A5E6236B1BB1E7E7636B002BE6D11C49C9
:101F5000626AD1F8883003F44036E369120642EA37
:101F60008312A36913433343C1F88830D1F88C300E
:101F7000E26A23F4F853013A43EA0223C1F88C30B1
:101F8000CCE7636DB3F1006FCAD1E169A2690C4877
:101F900042EA8112216AD0F888304908013942EAC0
:101FA000014203F070631343C0F88830B8E7FFF7CD
:101FB000F1F9401B0228B9D969E603B0BDE8F08306
:101FC00000380240700047422049886800F00C0049
:101FD000082808B508D00C281FD01D4A1D4B04281E
:101FE0000CBF1846104608BD4A684B68496813F490
:101FF000800314BF17481648C1F3881118BF002387
:1020000002F03F02A1FB000107F0C8FB0F4B5B6829
:10201000C3F3014301335B0015E04A684B6849682C
:1020200013F4800314BF0B480948C1F3881118BF8B
:10203000002302F03F02A1FB000107F0AFFB034BBE
:102040005B68C3F30273B0FBF3F008BD00380240D5
:102050000024F40000127A0003682DE9F341DF0741
:10206000044603D423689E0758D4A5E0994B9A6888
:1020700002F00C02042A10D09A6802F00C02082A1E
:1020800002D15B685D0208D4924B9A6802F00C02A0
:102090000C2A0BD15A68500208D58E4B1B68990345
:1020A000E0D56368002BDDD1012061E16268B2F503
:1020B000803F04D11A6842F480321A6014E0854DE2
:1020C000B2F5A02F2B6807D143F480232B602B6837
:1020D00043F480332B6007E023F480332B602B68BC
:1020E00023F480232B606AB1FFF754F9794D06463B
:1020F0002B689A03B6D4FFF74DF9801B6428F7D9F3
:10210000032035E1FFF746F906462B689B03A9D566
:10211000FFF740F9801B6428F7D9F1E76D4B9A6807
:1021200012F00C0F10D09A6802F00C02082A02D1AB
:102130005B685F0208D5674A936803F00C030C2BB9
:1021400011D153685E020ED4624B1A68950702D50E
:10215000E268012AA8D11A68216922F0F80242EA4D
:10216000C1021A6028E0E2685B4BBAB101221A6032
:10217000FFF710F9574D06462B68564A980705D4C5
:10218000FFF708F9801B0228F6D9B9E7136821691F
:1021900023F0F80343EAC10313600DE01A60FFF770
:1021A000F9F84C4D06462B68990705D5FFF7F2F86C
:1021B000801B0228F7D9A3E723681A0703D42368F2
:1021C0005B0720D482E06269444B72B101221A603D
:1021D000FFF7E0F83F4D06466B6F9F07EFD4FFF720
:1021E000D9F8801B0228F7D98AE71A60FFF7D2F8DE
:1021F000384D06466B6F9807E1D5FFF7CBF8801B8B
:102200000228F7D97CE7334B1A6C12F080520BD1BD
:1022100001921A6C42F080521A641B6C03F08053D6
:102220000193019B012600E000262D4D2B68D90566
:1022300004D5A368274D012B10D115E02B6843F47A
:1022400080732B60FFF7A6F807462B68DA05F0D4F9
:10225000FFF7A0F8C01B0228F7D951E7052B08D1DA
:102260002B6F43F004032B672B6F43F001032B67A5
:1022700008E02A6F22F001022A672A6F22F0040286
:102280002A6773B1FFF786F8124D074641F2883886
:102290002B6F9B070DD4FFF77DF8C01B4045F7D986
:1022A0002EE7FFF777F841F2883807462B6F98073B
:1022B00006D45EB1074A136C23F08053136405E023
:1022C000FFF768F8C01B4045F0D919E7A2694AB981
:1022D00000204DE00038024000004742800E474297
:1022E00000700040244DAB6803F00C03082B3FF452
:1022F000DBAE224E0023022A33602DD1FFF74AF8CD
:1023000080462B681C4F990106D5FFF743F8C8EBB0
:1023100000000228F5D9F3E6E269236A1343626AF2
:1023200043EA8213E26A43EA0263226B43EA0272DF
:10233000A36A5B08013B42EA03437B6001233360ED
:10234000FFF728F804463B689A01C1D4FFF722F84A
:10235000001B0228F7D9D3E6FFF71CF804462B68C8
:102360009B01B5D5FFF716F8001B0228F7D9C7E681
:1023700002B0BDE8F08100BF003802406000474273
:10238000704700002E4A0368904212D0B0F1804F8F
:102390000FD0A2F57C4290420BD002F580629042B1
:1023A00007D002F58062904203D002F57842904255
:1023B00018D14A6823F070031343214A904237D062
:1023C000B0F1804F34D01F4A904231D002F5806284
:1023D00090422DD002F58062904229D002F57842D9
:1023E000904225D0184A904222D002F58062904255
:1023F0001ED002F5806290421AD0A2F59832904227
:1024000016D002F58062904212D002F580629042AE
:102410000ED003608B68C3620B688362084B9842DE
:102420000BD003F58063984207D0012343617047C6
:10243000CA6823F440731343EBE70B690363F4E7C3
:1024400000000140000400400040014010B5044677
:10245000A0B190F8393003F0FF021BB980F83820A2
:10246000FFF78EFF022384F839302068211DFFF723
:1024700089FF012384F83930002010BD012010BDF0
:1024800010B50123046A8B4024EA03030362036A44
:102490008A4042EA0301016210BD000010B5044603
:1024A00001220068FFF7ECFF2368084A934203D03B
:1024B00002F58062934203D15A6C42F400425A649E
:1024C0001A6842F001021A60002010BD00000140AD
:1024D000FFF7E4BF2DE9F04707683B69044623F4A2
:1024E0004052C368A168C069134322693B61FB681D
:1024F0001143626923F416430A43024323F00C0399
:102500001343FB607B6923F44072A369B0F5004F6D
:1025100043EA02037B617C4B7CD19F4203D003F5ED
:1025200080639F4231D1FFF71BFB636819254FEA97
:1025300043086843B0FBF8F8FFF712FB666868438E
:102540007600B0FBF6F6FFF70BFB63684FF064090B
:102550005B006843B0FBF3F0B0FBF9F009FB1066D9
:10256000FFF7FEFAB8FBF9F86168F6003236B6FB01
:10257000F9F67600684349004FEA081806F4F87641
:10258000B0FBF1FAFFF7ECFA30E0FFF7D9FA636835
:1025900019254FEA43086843B0FBF8F8FFF7D0FA73
:1025A000666868437600B0FBF6F6FFF7C9FA636821
:1025B0004FF064095B006843B0FBF3F0B0FBF9F047
:1025C00009FB1066FFF7BCFAB8FBF9F8F600616882
:1025D0003236B6FBF9F67600684349004FEA081830
:1025E00006F4F876B0FBF1FAFFF7AAFA4543606803
:1025F0004000B5FBF0F0B0FBF9F009FB10A2D200EF
:102600003232B2FBF9F303F0070343441E44BE60C9
:10261000BDE8F0879F4202D03C4B9F4230D1FFF78C
:102620009FFA636819254FEA83086843B0FBF8F8FE
:10263000FFF796FA66686843B600B0FBF6F6FFF758
:102640008FFA63684FF064099B006843B0FBF3F0B6
:10265000B0FBF9F009FB1066FFF782FAB8FBF9F856
:1026600061683601684389004FEA08183236B0FBCA
:10267000F1FAB6FBF9F606F0F006FFF771FA2FE073
:10268000FFF75EFA636819254FEA83086843B0FBD9
:10269000F8F8FFF755FA66686843B600B0FBF6F63F
:1026A000FFF74EFA63684FF064099B006843B0FB84
:1026B000F3F0B0FBF9F009FB1066FFF741FAB8FB45
:1026C000F9F86168360132366843B6FBF9F68900DD
:1026D0004FEA081806F0F006B0FBF1FAFFF730FAFF
:1026E000454360688000B5FBF0F0B0FBF9F009FBF2
:1026F00010A212013232B2FBF9F303F00F0333449C
:102700004344BB60BDE8F087001001400014014065
:10271000704710B5044640B390F8393003F0FF021B
:102720001BB980F83820FFF7F3FF2268242384F8D0
:102730003930D36823F40053D3602046FFF7CAFE34
:1027400023681A6922F490421A615A6922F02A0217
:102750005A61DA6842F40052DA6000202023E06314
:1027600084F8393084F83A3010BD012010BD0000E3
:10277000174A1849936803F00C03042B03D0082B65
:1027800003D0154B18E0154B16E05068536810F451
:10279000800F03F03F03506814BF104A0E4AB2FB8B
:1027A000F3F30B4A5268C2F30142C0F388100132BE
:1027B00043435200B3FBF2F30B60054B084A9B689E
:1027C000C3F30313D25C0B68D3400B60704700BFA8
:1027D00000380240D80200200024F40000127A00E1
:1027E00035A1000838B5446805462846FEF746FF7F
:1027F0000028FAD0A401034B1B595868C0F3080005
:1028000038BD00BFC40D002070B5456806460C46B3
:102810003046FEF749FF0028FAD0AD01024B5B5964
:10282000C4F308045C6070BDC40D0020DFF830D034
:10283000002103E00B4B5B58435004310A480B4B1B
:1028400042189A42F6D30A4A02E0002342F8043BB7
:10285000084B9A42F9D300F011F8FDF7E1FC7047FC
:10286000000002200CA40008C8010020900B0020EA
:10287000900B0020900F0020FEE700000D4AD2F8D8
:10288000883043F47003C2F888300B4B1A6800217B
:1028900042F001021A6099601A6822F0847222F4F0
:1028A00080321A60054A5A601A6822F480221A603F
:1028B000D960704700ED00E000380240103000247D
:1028C000F0B5ADB02D4B002101911A6C42F0805251
:1028D0001A641B6C03F080530193019B284B0291F7
:1028E0001A6842F440421A601B6803F440430293A2
:1028F000029B0123089310B94FF4803301E04FF499
:10290000A02309934FF480030F934FF4B47302256F
:1029100011930826072308A80E9510961295139375
:102920001495FFF799FB044628BBFFF735F80746D7
:10293000F8B94FF4C0731C934FF48073159315A826
:102940004FF000632A931B961D96FFF737F90F236C
:1029500003934FF4A053069305214FF4805303A82B
:10296000049505970793FFF753F8B0FA80F04009F4
:1029700002E0204600E000202DB0F0BD003802400B
:102980000070004030B5ADB00023294A0193116CAE
:1029900041F080511164126C02F080520192019A50
:1029A000244A0293116841F440411160126809936E
:1029B00002F440420292029A0F9303224FF4B4733E
:1029C0000892012202240B9211931022062308A8D8
:1029D0000C920E94109212941393FFF73DFB08B1E2
:1029E000002023E0FEF7D8FF05460028F8D1082391
:1029F0001B931D934FF48073C022159315A84FF0BD
:102A000000631C922A93FFF7D9F80F2303934FF426
:102A1000A053069305214FF4805303A80494059511
:102A20000793FEF7F5FFB0FA80F040092DB030BDF6
:102A3000003802400070004008B50120FFF740FF59
:102A400038B9FFF79FFF20B90248BDE80840FEF7FC
:102A5000CDB808BD40A20008074B084A13601A69A8
:102A6000910707D5DA68920704D56FF002021A6160
:102A7000FDF752BF704700BF000C0040480F002018
:102A80000048704754A2000830B589B001A903A8D6
:102A9000FFF776F8FFF754F8002302931E4B0190DE
:102AA0001A6C1E4C42F008021A641A6C02F00802FA
:102AB0000292029A1A6A42F008021A621A6A22F014
:102AC00008021A62069AA3F50B3323604FF0FF3316
:102AD000E360134B02B14000B0FBF3F00138002576
:102AE00060600E482561A5606561FFF7AFFC0D4B86
:102AF0000D4A9B680948C3F808210C4B4FF480220B
:102B00005A602946FFF7E4FC2268D36823F00203E9
:102B1000D36009B030BD00BF00380240480F00202C
:102B200040420F0000ED00E0592A000800E100E0FB
:102B3000014B586A704700BF000C0040054B1B68F2
:102B40006FF0020258631A61DA6842F00202DA603A
:102B5000704700BF480F0020064B1B686FF0020251
:102B60001A615A6942F002025A61DA6842F00202BE
:102B7000DA607047480F0020034B1A68D36823F0CF
:102B80000203D360704700BF480F0020FFF7F4BF77
:102B9000024B1B686FF002021A617047480F002059
:102BA00010B502FB01F1FDF7C3FE0446D8B150F8A1
:102BB000042C22F00302043A242A18D8132A14D928
:102BC00000231B2A0360436016D9242A8360C36054
:102BD00011BF00F110020361436100F118020023EC
:102BE000136053609360204610BD0246F7E7002152
:102BF00001F044F9204610BD00F10802EFE700BFE4
:102C0000014B1868704700BF0807002000293DD01D
:102C100070B505460C4608B1836B7BB3B4F90C3034
:102C20000BB9002070BD2146284600F031F8E36A58
:102C3000064633B1E169284698470028B8BF4FF0EF
:102C4000FF36A3891B061CD4216B41B104F140035C
:102C5000994202D02846FDF76FFE00232363616C82
:102C600021B12846FDF768FE0023636400F060F997
:102C70000023A38100F05EF9304670BD00F052F9E8
:102C8000CCE721692846FDF757FEDDE700207047B5
:102C9000B1F90C309AB22DE9F0410D46110780468A
:102CA0003CD46A6843F40063002AAB8173DDAC6AEC
:102CB000002C4BD09BB203F48052002192B2D8F882
:102CC0000060C8F80010002A69D02A6D5F0705D59A
:102CD00069682B6B521A0BB1EB6BD21A0023E969AE
:102CE0004046A047441C3CD0B5F90C302A692A6004
:102CF00023F400630022AB81DB046A6049D4296BB2
:102D0000C8F8006011B305F14003994202D0404673
:102D1000FDF712FE00202863BDE8F0812E69AEB1F8
:102D20002C682E6090070CBF6B690023A41BAB605E
:102D30000AE0234632466F6AE9694046B8470028F0
:102D4000A4EB0004064404DD002CF2DC0020BDE806
:102D5000F081AB8943F04003AB814FF0FF30BDE819
:102D6000F081D8F800201D2AF3D81A4BD34003F085
:102D7000010383F00104002BEBD0B5F90C30296975
:102D8000296023F40063D9046C60AB81B7D5002AB5
:102D9000B5D12865B3E7EA6B002A88DCD6E70123C2
:102DA000E9694046A047431C024602D0AB89AC6AA1
:102DB0008CE7D8F80030002BF8D01D2B01D0162B53
:102DC00002D1C8F80060C1E7AB8943F04003AB8192
:102DD000BDE8F0810100402010B5044682B008B182
:102DE000836B53B1B1F90C0008B902B010BD204695
:102DF00002B0BDE81040FFF74BBF019100F092F820
:102E00000199EFE720B1054B01461868FFF7E4BFD1
:102E1000034B0449186800F05BBB00BF08070020A3
:102E200060A20008D92D0008014900F051BB00BF85
:102E30000D2C00082DE9F04F354B4568C363002485
:102E4000074600F53B7204230321C0F8E412C0F8E2
:102E5000E822C0F8E04283B02C606C60AC606C6625
:102E6000EC812C616C61AC61AB81214605F15C00A9
:102E7000082201F003F8BE68DFF898B0DFF898A0E8
:102E8000DFF89890DFF89880C5F820B00123092278
:102E9000C5F824A0C5F82890C5F82C80ED6121461E
:102EA000F381B28106F15C0034607460B4607466D2
:102EB00034617461B4610822019300F0DFFFFD68A2
:102EC000F66112200222C6F820B0C6F824A0C6F887
:102ED0002890C6F82C802146A881EA812C606C607D
:102EE000AC606C662C616C61AC6105F15C00082221
:102EF00000F0C4FF019BED61C5F820B0C5F824A027
:102F0000C5F82890C5F82C80BB6303B0BDE8F08FEE
:102F1000292E00081D430008414300087D43000896
:102F20009D430008836B03B17047FFF783BF00BF69
:102F3000704700BF704700BFF8B5234F0C460646E8
:102F4000FDF731FFBB685D6825F00305291B01F61D
:102F5000EF7121F47F6121F00F01A1F58054B4F5E8
:102F6000805F07DB0021304601F0C6F9BB682B44C7
:102F7000984204D03046FDF71AFF0020F8BD6142A8
:102F8000304601F0B9F901300DD0104BBA6819681C
:102F90002D1B45F001053046091B55601960FDF7F2
:102FA00006FF0120F8BD0021304601F0A5F9BA68FE
:102FB000831A0F2BDEDD064C0449246843F001031D
:102FC000001B53600860D5E70C070020500D00205F
:102FD000180B0020002945D02DE9F0410D46804610
:102FE000FDF7E1FE55F8047C6A4927F00103A5F1DD
:102FF0000804E2188E685068B24220F0030062D0E4
:10300000FE0750600BD455F8087CE41B01F1080E54
:10301000A56875453B446FD0E768EF60BD60151843
:103020006D68ED0742D543F001026260E350B3F5ED
:10303000007F18D2DB085A1C4D6851F83270A76027
:1030400001209B1000FA03F301EBC2001D43083876
:10305000E0604D6041F83240FC604046BDE8F04120
:10306000FDF7A5BE70475A0A042A53D89A0902F1FF
:1030700039077F0002F1380501EB870051F827205E
:103080004449083890424DD0516821F003018B42E9
:1030900002D292689042F7D1D068E060A26084606A
:1030A000D4604046BDE8F041FDF781BE95683A4FD7
:1030B000BD4203443FD0D068E86043F00102856020
:1030C0006260E350B3E7FF07034407D455F8082CC8
:1030D000A41A1344A068E268C26090602F4A126884
:1030E00043F00100934260608C60B6D32C4B4046A5
:1030F0001968FFF721FFB0E711184968C90744D4E0
:103100009168D268CA60034443F001009160606036
:10311000E350A2E7142A17D802F15C077F0002F1FE
:103120005B05A9E7AA104B68012505FA02F21343D3
:103130004B600246B1E743F001024C610C61E5606F
:10314000A5606260E35088E7542A06D81A0B02F1A2
:103150006F077F0002F16E058EE7B2F5AA7F06D8F1
:10316000DA0B02F178077F0002F1770584E740F27D
:103170005450824206D89A0C02F17D077F0002F17A
:103180007C0579E7FE277E2576E743F00102626041
:10319000E35062E70C07002014070020140B002006
:1031A0004C0D002038B50B46074C05461146184615
:1031B00000232360FDF738FF431C00D038BD23688F
:1031C000002BFBD02B6038BD8C0F00209368002BA8
:1031D00076D02DE9F04F8B8985B00C461907019008
:1031E000164629D522693AB303F002081FFA88F07F
:1031F000356800282FD04FF00009B44FC846B246BA
:10320000B84543464A4628BF3B460198B8F1000FEF
:1032100050D0E169666AB047002871DDDAF80830FD
:103220001B1A8144C0EB0808CAF80830002BE7D10C
:10323000002005B0BDE8F08F2146019802F0BAFDEC
:10324000002840F03A81A389356803F002081FFA8C
:1032500088F00028CFD113F001095BD14F460296C8
:103260001FB39A05D4F808802CD54745C246C0F054
:10327000A48013F4906F40F0B18020685246494614
:1032800000F098FDA0682368C8EB00005344A060DC
:1032900023603846029A93681B1A81443F1A936050
:1032A000002BC5D0A389002FDBD1D5F800906F6823
:1032B0000835D5E7D5F80090D5F8048008359FE7A4
:1032C0000020704720682369984203D861698F42C3
:1032D00080F0B780B84528BFB8464246494600F05E
:1032E00069FDA3682268C8EB03034244A36022601F
:1032F000002B49D121460198FFF76EFD002843D0ED
:10330000B4F90C3043F040034FF0FF30A38105B017
:10331000BDE8F08F8046029082468146B9F1000FE9
:103320002AD0029B002B4CD0206823696269C845D3
:10333000C34628BFCB4698425F4604D9A3681344CE
:103340009B4500F39080934520DB1346676AE16953
:1033500001985246B847071ED2DDB8EB070823D0C4
:10336000B368DB1BBA44C7EB0909B360002B3FF419
:103370005FAFB9F1000FD4D10023D5F800A0D5F884
:10338000049002930835C9E7404683E75A46514600
:1033900000F010FDA2682368CBEB02025B44B8EB9F
:1033A0000708A2602360DBD121460198FFF714FDD6
:1033B0000028A5D1CDF80880D2E72068B846BA46E3
:1033C0005CE74A460A21504600F00AFC00286FD00C
:1033D00001300123CAEB00080293A5E76269206867
:1033E000216902EB4208C1EB000A08EBD8780AF128
:1033F00001004FEA680838444045424684BF804691
:1034000042465B0542D511460198FDF791FA834685
:10341000002855D05246216900F032FCA38923F4DC
:10342000906343F08003A381CAEB08030BEB0A000F
:10343000C4F81480C4F810B02060A360B846BA463F
:103440001CE76FF00043BB4228BF3B464A4693FB54
:10345000F1F30198666A01FB03F3E169B0470028C4
:103460003FF718AF4CE71A465146039300F0A2FC11
:103470002268039B01981A4422602146FFF7ACFCA6
:10348000039B00287FF43CAF1F4666E70198FDF7D9
:1034900051FA83460028C7D1019D21692846FDF7CE
:1034A0004BFAB4F90C300C2223F080032A6029E790
:1034B000012309F10108029336E74FF0FF30B8E627
:1034C000019A0C231360B4F90C301BE700FCFF7F5A
:1034D0002DE9F84310F538771FD0884606464FF09F
:1034E00000097D68BC68013D11D4A389012B05F159
:1034F000FF3508D9B4F90E3001332146304602D0E9
:10350000C04749EA00096B1C04F16804EDD13F682B
:10351000002FE6D14846BDE8F883B9464846BDE8E5
:10352000F88300BF70B50F4E0F4D761BB61018BF55
:10353000002405D0013455F8043B9847A642F9D140
:103540000A4E0B4D761B06F0B5FAB61018BF0024D4
:1035500006D0013455F8043B9847A642F9D170BD16
:1035600070BD00BF7C0B00207C0B0020880B00206E
:103570007C0B002070B50D46B1F90E10002990B0FB
:1035800014461E4614DB01AAFFF70CFE00280FDBD1
:10359000029A02F47042A2F50052B2FA82F2520983
:1035A0004FF480634FF400603260236010B070BD50
:1035B000A88900F0800082B2002030601AB1402358
:1035C000236010B070BD4FF480631046236010B0CC
:1035D00070BD00BF8A8992070B4606D501F14302F0
:1035E00001211A601A6159617047F0B583B001ABCF
:1035F0006A460C460546FFF7BDFF00990646284679
:10360000FDF796F9B4F90C30D0B1019A124F009938
:10361000EF6343F08003A3812060206161611AB9E8
:103620003343A38103B0F0BD2846B4F90E1003F074
:10363000E1FBB4F90C300028F2D043F00103EFE7CE
:103640009A05EFD404F1430243F002030121A38160
:10365000226022616161E5E7292E0008024B0146E4
:103660001868FDF769B900BF080700202DE9F04F81
:1036700001F10B05162D83B0064640F29F8035F010
:10368000070500F1BF80A94200F2BC80FDF78BFB6B
:10369000B5F5FC7FC0F09C826B0A00F0BA80042B69
:1036A00000F28381A80900F1390E4FEA4E03383049
:1036B000C44F07EB8303A3F108015C68A14207D163
:1036C000ACE0002A80F2AC80E468A14200F0A68061
:1036D000636823F003035A1B0F2AF2DDB9493C69E2
:1036E00001F1080E744500F0B381636823F0030311
:1036F0005A1B0F2A00F39981002AC1F814E0C1F87F
:1037000010E080F29E80B3F5007F80F06781DB08D7
:1037100003F1010C01229B1002FA03F34A6851F8ED
:103720003C80C4F8088001EBCC091A43A9F10803D6
:10373000E3604A6041F83C40C8F80C408310012423
:103740009C40944200F28A80144206D120F003008B
:103750006400144200F10400FAD007EBC009CC4623
:103760008046DCF80C108C4507D173E1002A80F20A
:103770008181C9688C4500F06D814B6823F003039B
:103780005A1B0F2AF2DD0C46D1F80CC054F8088FF2
:103790004B1945F001054D6042F00101C8F80CC01D
:1037A0003046CCF808807B613B61C3F80CE0C3F87D
:1037B00008E059609A50FDF7FAFA1FE0102921D865
:1037C000FDF7F1FA1025062302207E4F07EB830355
:1037D000A3F108025C68944200F045816368E168E7
:1037E000A56823F00303234430465A68E96042F099
:1037F00001028D605A60FDF7DAFA0834204603B002
:10380000BDE8F08F00240C232046336003B0BDE8F0
:10381000F08F80234FF0400E3F2049E770465DE770
:103820002344E1685A68A56842F00102E960304625
:103830008D605A60FDF7BBFA0834204603B0BDE83E
:10384000F08F234430465A6842F001025A60FDF777
:10385000AEFA0834204603B0BDE8F08FBC68636858
:1038600023F00308A84504D3C5EB08030F2B00F38E
:103870008C80554BDFF860911A68D9F8003001331D
:103880002A4404EB080A00F0608102F580520F32EE
:1038900022F47F6222F00F0211463046019200F0BE
:1038A0002BFDB0F1FF3F8346019A00F0588182451D
:1038B00000F2FC80454B1968DA451144196000F0AC
:1038C0005381D9F80000DFF810E101301BBFCAEBCB
:1038D0000B0A5144CEF800B019601BF0070100F04C
:1038E0001781C1F10800C1F58051834408315A4461
:1038F000C2F30B02C2EB010949463046019300F0C6
:10390000FBFC431C019B00F03F81CBEB00024A44CF
:1039100042F001021968C7F808B04944BC42CBF82C
:1039200004201960DFF8A49016D0B8F10F0F40F210
:10393000FD806268A8F10C0323F00703E01802F091
:1039400001024FF0050E1A430F2B6260C0F804E02D
:10395000C0F808E000F21C811D4BBC681A68914257
:1039600088BF19601B4B1A689142626888BF196052
:1039700022F003029542A2EB050301D80F2B04DCD1
:103980003046FDF714FA002438E7621943F00103CA
:1039900045F0010565603046BA605360FDF707FAEF
:1039A0000834204603B0BDE8F08F142B71D9542B96
:1039B00000F2A480280B00F16F0E4FEA4E036E3028
:1039C00076E600BF0C0700204C0D0020500D0020B3
:1039D000480D0020440D0020180B00205A0A042A2C
:1039E0005ED9142A00F2B38002F15C0149005B3217
:1039F00007EB810C57F82110DFF8DC81ACF1080CE3
:103A00008C4500F088804A6822F00302934202D27B
:103A100089688C45F7D1D1F80CC07A68C4F80CC01D
:103A2000A160CCF80840CC6088E6631942F0010739
:103A300045F00105656030464B610B61C3F80CE051
:103A4000C3F808E05F609A500834FDF7B0F9D5E696
:103A50004A6873E608F1010818F0030F0CF1080C2E
:103A60007FF47FAE30E0DC68A34208BF02303FF451
:103A700035AEB3E60B440C465A68C96854F8085F83
:103A800042F001025A603046E9608D60FDF78FF91F
:103A9000B4E603F15C0E03F15B004FEA4E0307E668
:103AA0009A0902F1390149003832A1E7BC424A4B78
:103AB0003FF400AF9C68626822F003025AE759F8AD
:103AC0000839994540F0828010F0030F00F1FF3073
:103AD000F5D17B6823EA04037B6064009C423FF6D7
:103AE000BDAE002C3FF4BAAE1C4240467FF435AE6A
:103AF00064001C4200F10400FAD02EE6B3F5AA7F60
:103B000018D8E80B00F1780E4FEA4E037730CFE576
:103B10004FF48051EBE60121D8F80430921001FAFD
:103B200002F21A43C8F80420614677E70123CBF874
:103B3000043025E740F25452934220D8A80C00F1FB
:103B40007D0E4FEA4E037C30B2E51032A4E6542AD3
:103B500026D81A0B02F16F0149006E3248E7BC68A3
:103B6000626822F0030205E7CAF30B0000287FF425
:103B7000A8AE4244BB6842F001025A60ECE6FE2364
:103B80004FF07F0E7E2093E501224FF00009C1E641
:103B900004F108013046FCF7CFFED9F80010DBE64F
:103BA000B2F5AA7F05D8DA0B02F178014900773225
:103BB0001EE740F254518A4205D89A0C02F17D0169
:103BC00049007C3214E7FE217E2211E77B6884E7FE
:103BD000E808431C5B00F8E50C070020000000002B
:103BE00001F0FF01102A2BDB10F0070F08D010F8AE
:103BF000013B013A8B422DD010F0070F42B3F6D1B2
:103C0000F0B441EA012141EA014122F007047FF0CA
:103C100000070023F0E80256083C85EA010586EA21
:103C2000010685FA47F5A3FA87F586FA47F6A5FA5D
:103C300087F68EB9EED1F0BC01F0FF0102F0070269
:103C400032B110F8013B013A83EA010313B1F8D114
:103C50000020704701387047002D06BF35460338F5
:103C6000073815F0010F07D1013015F4807F02BF2E
:103C7000013015F4C03F0130F0BC0138704700BF7F
:103C8000844641EA000313F003036DD1403A41D367
:103C900051F8043B40F8043B51F8043B40F8043B26
:103CA00051F8043B40F8043B51F8043B40F8043B16
:103CB00051F8043B40F8043B51F8043B40F8043B06
:103CC00051F8043B40F8043B51F8043B40F8043BF6
:103CD00051F8043B40F8043B51F8043B40F8043BE6
:103CE00051F8043B40F8043B51F8043B40F8043BD6
:103CF00051F8043B40F8043B51F8043B40F8043BC6
:103D000051F8043B40F8043B51F8043B40F8043BB5
:103D1000403ABDD2303211D351F8043B40F8043B55
:103D200051F8043B40F8043B51F8043B40F8043B95
:103D300051F8043B40F8043B103AEDD20C3205D365
:103D400051F8043B40F8043B043AF9D2043208D05D
:103D5000D2071CBF11F8013B00F8013B01D30B88CF
:103D600003806046704700BF082A13D38B078DD0AD
:103D700010F003038AD0C3F10403D21ADB071CBF7F
:103D800011F8013B00F8013B80D331F8023B20F8E9
:103D9000023B7BE7043AD9D3013A11F8013B00F822
:103DA000013BF9D20B7803704B7843708B788370AA
:103DB000604670478842F0B50DD98B1898420AD2F8
:103DC0008118002A51D09A1A13F8014D01F8014DBB
:103DD0009342F9D1F0BD0F2A48D941EA00039B076D
:103DE00046D100F1100401F11003154653F8106C90
:103DF00044F8106C53F80C6C44F80C6C53F8086CD5
:103E000044F8086C103D53F8046C44F8046C0F2D12
:103E100003F1100304F11004E8D8A2F1100323F019
:103E20000F0302F00F0E1033BEF1030F19440344C9
:103E300021D91E1F0D467446043C55F8047B46F8F4
:103E4000047F032CF8D8AEF1040424F003040434F6
:103E50002344214402F0030262B1013B0A4411F8F9
:103E6000014B03F8014F8A42F9D1F0BD0346F3E755
:103E70000346F2E7F0BD7246EEE700BF70B4840778
:103E800046D0541E002A41D0CDB2034602E0621E45
:103E9000E4B3144603F8015B9A07F8D1032C2ED93A
:103EA000CDB245EA05250F2C45EA054519D903F1A0
:103EB00010022646103E0F2E42F8105C42F80C5CB1
:103EC00042F8085C42F8045C02F11002F2D8A4F156
:103ED000100222F00F0204F00F041032032C1344DE
:103EE0000DD91E462246043A032A46F8045BFAD846
:103EF000221F22F003020432134404F003042CB105
:103F0000C9B21C4403F8011BA342FBD170BC70472B
:103F100014460346C2E700BF2DE9F04F174683B0B1
:103F2000002900F0C1800E46814607F10B05FCF721
:103F30003AFF56F804EC162D2EF00304A6F10808FB
:103F400040D810221546AF4241D8944275DAC94B89
:103F5000996808EB04008842416800F0D98021F09C
:103F6000010303445B68DB077DD51EF0010F35D0EC
:103F700039464846FCF7DCFC0746E0B156F8043CFD
:103F800023F001034344A0F108029A4200F0448167
:103F9000221F242A00F23181132A00F204810346F1
:103FA0003246116819605168596092689A603146CA
:103FB0004846FCF7C1FC4846FCF7F9FE384603B01A
:103FC000BDE8F08F25F00705002D2A46BBDA0C234B
:103FD0000020C9F8003003B0BDE8F08F56F8083C67
:103FE000C3EB080ADAF8043023F0030C04EB0C03EB
:103FF0009342BDDB5746DAF80C1057F8080F221F22
:10400000242AC160886000F21781132A40F21281CD
:104010003168CAF808107168CAF80C101B2A00F23F
:104020002B8108360AF11002316811607168516005
:10403000B16891603E461C46D046631B0F2B1DD8CD
:10404000D8F8043003F0010323434444C8F8043093
:10405000636843F0010363604846FCF7A8FE3046FE
:1040600003B0BDE8F08F21F003012144914221DB30
:10407000C36882680C46D3609A60DEE7D8F80420F3
:1040800008EB050102F00102154343F001020B4465
:10409000C8F804504A605A6842F0010208315A6078
:1040A0004846FCF749FCD7E7114603B0BDE8F04F9E
:1040B000FCF73EBC1EF0010F7FF45AAF56F8083CE7
:1040C000C3EB080ADAF8043023F0030C01EB0C0E02
:1040D00096458BDBC36882685746D3609A6057F871
:1040E000081FDAF80C30CB60221F242A996000F2F6
:1040F0009980132A62D93368CAF808307368CAF8FD
:104100000C301B2A00F2A08008360AF1100356E09A
:1041100021F0030BA34405F11000834559DA1EF08A
:10412000010F7FF425AF56F8081CC1EB080ADAF836
:10413000041021F0030CE34458453FF757AF5746AE
:10414000DAF80C1057F8080F221F242AC160886083
:1041500000F2B480132A40F2A5803168CAF8081032
:104160007168CAF80C101B2A00F2AF8008360AF1F9
:1041700010023168116071685160B16891600AEB9A
:104180000501C5EB0B0242F0010299604A60DAF8C2
:10419000043003F001031D434846CAF80450FCF7FD
:1041A00006FE38465CE733680360736843601B2A89
:1041B00027D800F1080306F10802F2E63B46326810
:1041C0001A6072685A60B2689A603E467446D04679
:1041D00033E708EB0501C5EB0B0B4BF001029960CF
:1041E0004A6056F8043C03F001031D43484646F874
:1041F000045CFCF7DCFD304632E73146FFF7DAFDC0
:10420000D5E6B3688360F368C360242A28D000F140
:10421000100306F11002C4E650F8043C23F0030337
:104220001C440AE7314638467446D046FFF7C2FDC3
:104230003E4602E73A46F7E6314638461C46D04647
:10424000FFF7B8FD3E46F8E6B368CAF81030F368E9
:10425000CAF81430242A1BD010360AF11803AEE72E
:10426000336903617369436106F1180200F11803B1
:1042700097E600BF0C070020B168CAF81010F1687B
:10428000CAF81410242A0FD010360AF11802CBE60F
:104290003369CAF818307369CAF81C3018360AF145
:1042A00020038CE73A4664E73269CAF8182072693D
:1042B000CAF81C2018360AF12002B5E63146384605
:1042C0000193FFF777FD019B59E7B168CAF8101019
:1042D000F168CAF81410242A03D010360AF1180223
:1042E00047E73269CAF818207269CAF81C201836E4
:1042F0000AF120023DE700BF38B5074C0023054610
:1043000008462360FCF712FD431C00D038BD23682B
:10431000002BFBD02B6038BD8C0F002010B50C4655
:10432000B1F90E1003F0ACF8002803DB236D034451
:10433000236510BDA38923F48053A38110BD00BF62
:104340002DE9F0411646B1F90C201F46D3050C4665
:10435000054607D500220223B1F90E1002F06AFDCE
:10436000B4F90C20B4F90E1022F48052A2813B461D
:1043700032462846BDE8F04101F006BD10B50C46B6
:10438000B1F90E1002F056FDA389421C0EBF23F4B2
:10439000805343F480532065A38110BDB1F90E1002
:1043A00001F06CBD000000000000000000000000F3
:1043B00000000000000000000000000000000000FD
:1043C00090F800F06DE9024520F007016FF0000C55
:1043D00010F0070491F820F040F049804FF00004FD
:1043E0006FF00700D1E9002391F840F000F10800D8
:1043F00082FA4CF2A4FA8CF283FA4CF3A2FA8CF310
:104400004BBBD1E9022382FA4CF200F10800A4FA76
:104410008CF283FA4CF3A2FA8CF3E3B9D1E90423CA
:1044200082FA4CF200F10800A4FA8CF283FA4CF301
:10443000A2FA8CF37BB9D1E9062301F1200182FABB
:104440004CF200F10800A4FA8CF283FA4CF3A2FAC1
:104450008CF3002BC6D0002A04BF04301A4612BACF
:10446000B2FA82F2FDE8024500EBD2007047D1E9D2
:10447000002304F00305C4F100004FEAC50514F061
:10448000040F91F840F00CFA05F562EA05021CBF32
:1044900063EA050362464FF00004A9E7000000004C
:1044A0002DE9F04FC5B01C460891164605460A9006
:1044B00002F0BCFC036817931846FFF781FF0E94C7
:1044C00016901DB1AB6B002B00F023810898B0F95A
:1044D0000C2093B2990407D4416E42F4005321F4A6
:1044E0000051838141669BB21A0740F1DD80089A32
:1044F0001269002A00F0D88003F01A030A2B00F09A
:10450000E1809FED877B00238DED147B129329932F
:10451000289319930B93DFF814A234AB2793994691
:10452000B04698F800304446EBB1252B02D11AE092
:10453000252B03D014F8013F002BF9D1C8EB04055B
:104540008DB1289B299AC9F8008001332A44072B92
:10455000C9F804502992289300F3C28009F1080990
:104560000B9B2B440B932378002B00F0C28000237D
:104570001A468DF87F3019460C9307934FF0FF3B96
:10458000637804F101085D4608F10108A3F12000F9
:10459000582800F25984DFE810F00F04570457043C
:1045A0001804570457045704570457045704620368
:1045B000490457045D000901570425017003700385
:1045C000700370037003700370037003700357046B
:1045D0005704570457045704570457045704570403
:1045E000570480039D0357049D0357045704570441
:1045F0005704EB03570457042C015704570457047E
:1046000057045704550157045704B402570457047C
:1046100057045704570457045704570457045704C2
:10462000F5020F039D039D039D033F030F035704F2
:104630005704460357045003CB006400200457047A
:1046400028045704F20357045704FA030C980E93F6
:1046500040420C90079B43F00403079398F8003006
:1046600092E70E98AB46002104688DF87F10071D75
:104670000798302378228B458DF880304FF0000565
:104680008DF8812040F00203C0F2FB8320F080030C
:1046900043F00203079354EA05030E9700F0CC831E
:1046A0000F46119220485DE208990A9801F082FBBA
:1046B000002841F03F80089B9B8903F01A030A2BD6
:1046C0007FF41FAF0899B1F90E30002BFFF619AF38
:1046D000234632460A9801F081FA45B0BDE8F08FD2
:1046E00027AA08990A9804F08FFA48B90DF1D00961
:1046F00036E7299B23B10A98089927AA04F084FA7F
:10470000089B9B89590601F115800B9845B0BDE8BF
:10471000F08F0A98FEF706FCD8E600BFAFF30080E2
:10472000000000000000000098A20008B8A20008E5
:104730001193AB46002A41F02582079A12F020031C
:1047400064D00E9F073727F00703002703F1080105
:10475000BB450E91D3E900458DF87F70C0F2B88655
:1047600022F08003079354EA050300F0828334AEFD
:10477000E20842EA4572E90804F007030D461446D0
:10478000303354EA050206F8013DF1D1079AD20709
:1047900040F19680302B00F093803022731E06F893
:1047A000012C34AAD21A0D921E468CE098F80030E3
:1047B0002A2B08F1010401F0B781A3F13000092888
:1047C00098BF002501F2678114F8013B05EB8505D0
:1047D00000EB4505A3F130000928F5D945EAE57558
:1047E000A046D3E6079B43F08003079398F8003078
:1047F000CAE61193AB46002A41F0BD81079B43F006
:1048000010030793079A12F020039AD1079911F029
:10481000100200F034860E988DF87F30BBF1000F47
:10482000046800F104074FF00005C0F250860A4604
:1048300022F08002079254EA05020E9700F01983D5
:104840001F4694E71193AB46002A41F0B381079BC2
:1048500043F010030793079A12F0200300F0FA8444
:104860000E9F073727F00703002703F10801BB4518
:104870000E91D3E900458DF87F70C0F2238522F0B8
:104880008003079354EA050300F0BC81002D08BFA4
:104890000A2CC0F01B8534AE204629460A2200238C
:1048A00004F07CFF303206F8012D20462946002313
:1048B0000A2204F073FF04460D4654EA0503EBD1C7
:1048C00034AB9B1B0D930D9B5B45B8BF5B460993B7
:1048D0000023139317B1099B01330993079B13F02E
:1048E00002030F9302D0099B02330993079B13F035
:1048F0008403109340F0D2820C9B099A9D1A002DDC
:1049000040F3CC82102D2999289AA84F27DD1896BC
:1049100048461024B946089E2F460A9D04E0103FE1
:10492000102F00F1080016DD0132A04B2892103143
:10493000072A299180E81800F1DD27AA3146284688
:1049400004F062F900287FF4DBAE103F102F2999A4
:10495000289A34A8E8DC189E3D464F46814601322D
:104960006C18072A29942892C9F80070C9F80450D5
:1049700000F328849DF87F7009F1080977B1289B1E
:10498000013301340DF17F010122072B2994289373
:1049900089E8060000F3A08309F108090F9B6BB1B9
:1049A000289B0133023420A90222072B2994289343
:1049B00089E8060000F39C8309F10809109B802B0D
:1049C00000F0D0820D9BC3EB0B07002F33DD784A3C
:1049D000289B0F92102F22DD22464FF0100B0A9DCC
:1049E000089C04E0103F102F09F1080916DD01337F
:1049F0001032072B2992289389E8000CF2DD27AAB0
:104A00002146284604F000F900287FF479AE103FD3
:104A1000102F299A289B0DF1D009E8DC14460133A8
:104A20000F9A28933C44072B299489E8840000F3CB
:104A3000478309F10809079BDD0500F13182289BB6
:104A40000D99C9F8006001330C44072B2994C9F86B
:104A50000410289300F31E8309F10809079B5807E7
:104A60003FD50C9B099A9D1A002D3ADD102D289BED
:104A70004E4F23DD22461026DDF828B0089C04E0C6
:104A8000103D102D09F1080917DD0133474928931E
:104A90001032072B299289E84200F1DD27AA21462E
:104AA000584604F0B1F800287FF42AAE103D102DCE
:104AB000299A289B0DF1D009E7DC144601332C44D8
:104AC000072B29942893C9F80070C9F8045008DD11
:104AD00027AA08990A9804F097F800287FF410AEE6
:104AE000299C0B9B0C9A09998A42ACBF9B185B18B6
:104AF0000B93002C40F0DA82002328930DF1D009AB
:104B00000FE51193AB46002A41F05080079B2948DE
:104B10009C0640F146810E9F073727F00703D3E933
:104B2000004503F108020E92079A12F0010700F007
:104B3000EB8254EA050300F081859DF844208DF84E
:104B400081200027079A8DF87F703023BB458DF8B0
:104B5000803042F00203C0F22A8722F0800343F043
:104B60000203079334AE230904F00F0143EA0573EF
:104B70002A091C461546435C06F8013D54EA050324
:104B8000F1D19DE60E9911930A688DF8A8200023B3
:104B90000A461F468DF87F30043201230993BB4635
:104BA00013970E920D932AAE98E600BF64A20008F8
:104BB000B8A2000884A200081193AB46002A40F076
:104BC000D287079B9B0674D50E9F073727F00707F0
:104BD000D7E9002307F108010E9114461D46002A6B
:104BE00073F10003C0F23A84BBF1000F9DF87F70AF
:104BF000C0F26883079B23F08003079354EA050300
:104C00007FF444AEBBF1000F40F008844FF0000B7E
:104C1000CDF834B034AE56E6079B43F0400307931B
:104C200098F80030B0E498F800306C2B00F0CE8596
:104C3000079840F010000790A6E4002A40F09787FC
:104C4000079B9F0640F1E3840E9A0B991368CD17DA
:104C50000846043229460E92C3E9000161E40E9C25
:104C600023680C9318460028234603F10403FFF63B
:104C7000EDAC0E9398F8003086E4A3F130000023E9
:104C80001C4618F8013B04EB840400EB4404A3F138
:104C900030000928F5D90C9478E41193AB46002A2A
:104CA00040F07C87079B43F010030793079B9B060C
:104CB0008AD4079BDF0600F19482079B5E0640F1D1
:104CC00090820E99B1F900400431E51722462B4637
:104CD0000E9184E71193AB46002A40F05787079B5B
:104CE0000E9F1D0707F1070740F1868427F0070391
:104CF00093ED007B8DED147B03F108020E92DDE94C
:104D0000141222F000431A911B93DDE91A454FF06B
:104D1000FF3220462946B54B04F002FD002840F042
:104D2000EA834FF0FF32B14B2046294604F0DAFC0B
:104D3000002840F0E08300220023DDE9140104F0A4
:104D4000C7FC002840F02B869DF87F70A84EA94B29
:104D5000079921F080010791119903224FF0000B70
:104D600009924729D8BF1E460D92CDF84CB0B1E547
:104D7000079B43F00803079398F8003004E411936D
:104D8000AB46002A3FF467AD8DF87F1063E51193C1
:104D9000AB46002A40F00687079B97489C063FF5E4
:104DA000BAAE079BD90640F196830E9A1346043398
:104DB00014680E930025B7E698F8003000297FF4B8
:104DC000E3AB01222021FFF7DFBB079B43F0010388
:104DD000079398F80030FFF7D7BB079B43F02003F9
:104DE000079398F80030FFF7CFBB0E9A119316681F
:104DF00000248DF87F40171D002E00F0A985002D9E
:104E0000C0F21E852A4621463046FEF7E9FE0028FC
:104E100000F00986831B0D93A34623EAE3730E97E4
:104E20000993CDF84CB09DF87F7053E598F80030A9
:104E300001222B21FFF7A8BB6F481192BBF1000F95
:104E400040F073815F46E1E61193002A40F0A286AC
:104E5000119A002A3FF44DAC002301211F4609910D
:104E60008DF8A8208DF87F309B4613930D912AAEC4
:104E700034E5BBF1000F00F0C785002700240025B2
:104E800075E45D480793119254EA05030E974FF0BD
:104E900000077FF467AE0024002563E6299C6DE5DA
:104EA000119B652B40F3AE8000220023DDE9140145
:104EB00004F004FC002800F03A81289B4F4AC9F80E
:104EC0000020013301340122072B29942893C9F8CB
:104ED000042000F3CD8309F10809219B129A934223
:104EE00003DB079BD8077FF5B9AD289B1699179A66
:104EF000C9F8002001330C44072B2994C9F8041089
:104F0000289300F36D8409F10809129B5D1E002DA2
:104F10007FF7A4AD3A4A289B0F92102D40F3B4813D
:104F200010260A9FDDF820B005E009F10809103DC0
:104F3000102D40F3A98101331034072B29942893B5
:104F4000C9F800A0C9F80460EFDD27AA5946384621
:104F500003F05AFE00287FF4D3AB299C289B0DF167
:104F6000D009E4E70C9B099A9F1A002F7FF72AAD1E
:104F7000234A289B0F92102F2BDD4A462146B94623
:104F8000102537460A9C089E06E0A9F11009B9F1E0
:104F9000100F02F1080218DD01331031072B29919F
:104FA0002893C2F800A05560EFDD27AA31462046BD
:104FB00003F02AFE00287FF4A3ABA9F11009B9F190
:104FC000100F2999289B34AAE6DC3E460C464F4632
:104FD000914601330F9A28933C44072B299489E882
:104FE000840000F32B8209F10809EBE4FFFFEF7F57
:104FF00078A2000874A2000898A20008B4A20008D1
:10500000B8A20008129B289D012B40F3D0810135E6
:1050100001340123072D29942895C9F80060C9F8A7
:10502000043000F3E18109F10809169A179BC9F8C9
:10503000003001351444072D29942895C9F804201F
:1050400000F3DF8109F1080900230022DDE91401E2
:1050500004F034FB129B002840F0CC80013B01356A
:1050600001361C44072D28952994C9F80060C9F819
:10507000043000F3AC8109F10809199AC9F8042039
:105080000135144423AB072D29942895C9F8003025
:105090007FF7E2AC27AA08990A9803F0B5FD00282B
:1050A0007FF42EAB299C0DF1D009D7E427AA0899EB
:1050B0000A9803F0A9FD00283FF41EADFFF720BBBE
:1050C00027AA08990A9803F09FFD00287FF418ABDF
:1050D000299C0DF1D009AEE427AA08990A9803F09B
:1050E00093FD00287FF40CAB299C0DF1D00955E409
:1050F00027AA08990A9803F087FD00287FF400ABDF
:10510000299C0DF1D00959E4BBF1000F8DF87F7097
:10511000C0F20D8322F08003079354EA05037FF465
:1051200021ADBBF1000F3FF48DAE0027B3E6219D0A
:10513000002D40F3A982139B129A9342A8BF1346F5
:10514000002B1D460DDD289BC9F8006001332C445F
:10515000072B2994C9F80450289300F3828309F19E
:105160000809139B002DA8BF5B1B002B1D4640F3B5
:10517000BE80B94A289B0F92102D40F36C822246C4
:105180001027DDF828B0089C05E009F10809103D5A
:10519000102D40F35F8201331032072B29922893A0
:1051A000C9F800A0C9F80470EFDD27AA21465846C7
:1051B00003F02AFD00287FF4A3AA299A289B0DF169
:1051C000D009E4E727AA08990A9803F01DFD0028F2
:1051D0007FF496AA9DF87F70299C0DF1D009FFF706
:1051E000CDBB0E9A146813460433E5170E9322467E
:1051F0002B46F4E45E1E002E7FF73FAF964B0F93D5
:10520000102E40F31081CDF834801027B046DDF821
:1052100028B0089E07E009F10809A8F11008B8F1C4
:10522000100F40F3FD8001351034072D2994289587
:10523000C9F800A0C9F80470EDDD27AA3146584628
:1052400003F0E2FC00287FF45BAA299C289D0DF165
:10525000D009E2E7079911F0100220D00E988DF8DE
:105260007F30BBF1000F046800F104074FF0000528
:1052700026DB0A4622F08002079254EA05020E97C6
:105280001F467FF403ABBDE401330F9A28932C44EF
:10529000072B299489E824007FF7DEABFAE607990B
:1052A00011F0400340F04A820E998DF87F30BBF137
:1052B000000F0C6801F104074FF0000580F219811E
:1052C0000E971F4654EA05037FF4E0AA44AE30343B
:1052D00006F8414DFFF7F4BA27AA08990A9803F097
:1052E00093FC00287FF40CAA299C0DF1D009139A95
:1052F000219B32441746129A934247DB079AD20702
:1053000044D412990E44F51BCB1A9D42A8BF1D46EA
:10531000002D2E460DDD289AC9F8007001322C446C
:10532000072A2994C9F80450289200F3298309F127
:105330000809002EACBF9D1B1D46002D7FF78EABCC
:10534000454A289B0F92102D9EDD10260A9FDDF8FE
:1053500020B004E009F10809103D102D94DD01335F
:105360001034072B29942893C9F800A0C9F80460C9
:10537000F0DD27AA5946384603F046FC00287FF4A2
:10538000BFA9299C289B0DF1D009E5E7289A16981A
:105390001799C9F8001001320444072A2994C9F862
:1053A0000400289200F3768209F10809A9E7079B17
:1053B000DF073FF52CAE013501340123072D299479
:1053C0002895C9F80060C9F804307FF754AE27AAC1
:1053D00008990A9803F018FC00287FF491A9299CE9
:1053E000289D0DF1D00948E627AA08990A9803F0EC
:1053F0000BFC00287FF484A9299C289D0DF1D0097D
:1054000013E627AA08990A9803F0FEFB00287FF408
:1054100077A9299C289D0DF1D00915E6002455E7B0
:105420004646DDF834800F9B01353444072D29941E
:10543000289589E848007FF71EAEC8E727AA089993
:105440000A9803F0E1FB00287FF45AA9299C0DF18A
:10545000D009FFF7B7BA00BFB8A2000864424FF006
:105460002D0765EB4505BBF1000F8DF87F70FFF64A
:105470000DAA079B23F080030793FFF707BA07994C
:1054800011F0400315D00E988DF87F20BBF1000F6E
:10549000048800F104074FF0000518DB21F08003B9
:1054A000079354EA05030E973FF4E3AC1746FFF762
:1054B0005EB90E998DF87F30BBF1000F0C6801F1D9
:1054C00004074FF0000502DB079AFFF7B1B90E970A
:1054D0000027FFF74CB90E9A079B13F0400F1346B5
:1054E00003F104030CBF146814880E930025FFF722
:1054F0001BBB079ABEE6DDE9140102460B4604F029
:105500000FF9002840F0E182119BBBF1FF3F23F02F
:10551000200700F04982472F00F05281159B079A1F
:10552000002B42F480720F92C0F258829DED147BE2
:105530008DED1C7B00230993119B662B00F03A82B2
:10554000462B00F01281452F0CBF0BF101055D4683
:1055500025A822A921AA0223049002920093019572
:10556000DDE91C2303910A9800F02EFD119B672BA7
:10557000064640F07182079BDA0740F1A482741955
:1055800000220023DDE91C0104F098F8002840F017
:105590006681259B9C4206D930215A1C25921970A0
:1055A000259B9C42F9D89B1B472F129300F05081FA
:1055B000119B652B40F35F82119B662B219B1393FC
:1055C00000F03C82139A12998A42C0F21082079B23
:1055D000DB0700F1678222EAE2730D9267221192E3
:1055E000099A002A40F0228109930F9B0793934662
:1055F0009DF87F70FFF76EB927F0070797ED007BE6
:1056000007F108038DED147B0E93FFF778BB079B22
:10561000DE060BD4079B5D0608D50E9A136804328C
:105620000E92BDF82C201A80FEF77BBF0E9A1368ED
:1056300004320E920B9A1A60FEF773BF0027BB4527
:105640008DF87F70FFF627AC079B23F0800307934C
:10565000FFF7F4BB144601330F9A28932C44072B11
:10566000299489E824003FF737AE09F108093EE69E
:1056700027AA08990A9803F0C7FA00287FF440A8DF
:10568000299C0DF1D00928E4289BB94AC9F80020CB
:10569000013301340122072B29942893C9F80420EF
:1056A00000F3818009F108092DB9129B1BB9079BF2
:1056B000D9077FF5D3A9289B1699179AC9F8002016
:1056C00001330C44072B2994C9F80410289300F3E4
:1056D000D48109F108096D42002D40F39A80A54A52
:1056E0000F92102D40F3CA8022461027DDF828B013
:1056F000089C05E009F10809103D102D40F3BD801C
:1057000001331032072B29922893C9F800A0C9F859
:105710000470EFDD27AA2146584603F075FA0028E9
:105720007EF4EEAF299A289B0DF1D009E4E70E9F95
:10573000FFF7AABB4FF0FF30FEF7E8BF0E988DF8D9
:105740007F20BBF1000F048800F104074FF0000533
:10575000C0F2A58121F08003079354EA05030E9758
:1057600017467FF493A8FFF74DBA25A822A921AACE
:105770000323049002920093CDF804B00391DDE975
:105780001C230A9800F020FC5D460646119B462B20
:1057900006EB05047FF4F4AE3378302B00F0A481DF
:1057A000219D2C44ECE627AA08990A9803F02CFACC
:1057B00000287EF4A5AF219D299C0DF1D00973E747
:1057C000BBF1000F08BF4FF0010BA7E6079B43F0AA
:1057D0002003079308F1010898F80030FEF7D4BEC3
:1057E00027AA08990A9803F00FFA00287EF488AFD8
:1057F000299C0DF1D009FFF788BB27AA08990A98C0
:1058000003F002FA00287EF47BAF299C289B0DF15F
:10581000D0091299C9F8006001330C44072B299470
:105820002893C9F804107FF717A933E42D270993AB
:105830000F9B07938DF87F704FF0000BFFF74BB86D
:105840003046FEF7BDFDA34603460D90FFF7E5BACF
:10585000219BD81C2BDB9B4529DB1393B2E6234607
:10586000A1E627AA08990A9803F0CEF900287EF449
:1058700047AF299C0DF1D00973E4144601330F9A08
:1058800028932C44072B299489E82400B5DC09F1DE
:105890000809BEE727AA08990A9803F0B5F9002875
:1058A0007EF42EAF219B299C0DF1D00929E5119A98
:1058B000023A1192013B002B9DF844202193B8BF7E
:1058C0005B428DF88C20B4BF2D222B22092B8DF842
:1058D0008D2040F3F0800DF19B000446264A82FBA8
:1058E0000321DA17C2EBA10202EB8201A3EB410311
:1058F00003F13001092A134604F8011DEEDC2146AC
:105900003033DAB201F8012D884240F238810DF1CE
:105910008E01234601E013F8012B01F8012B984278
:10592000F9D1431C1B1B0DF18E02134423AA9B1AB1
:10593000129A1993012A13440D9340F3EB800D9BA7
:10594000169A134400220D93139223EAE37347E659
:10595000062D2B4628BF06230D9323EAE373B34697
:105960000E97139637460993044EFEF7B3BF00BF58
:10597000B4A20008B8A2000867666666ACA2000878
:1059800027AA08990A9803F03FF900287EF4B8AED8
:10599000219B129A299CD31A0DF1D009C9E42D2715
:1059A0008DF87F70FFF7D2B94FF0060BB6E507937D
:1059B000FFF7D8B825A822A921AA032304900292B0
:1059C0000093CDF804B00391DDE91C230A9800F0A0
:1059D000FBFA5D46064600EB0B04DDE6DDE914123A
:1059E00002F100431D932D231C910993A4E5169AFF
:1059F000129B1344139A0D93002A40F3838067226D
:105A000023EAE3731192EBE5079BDB075F4605D5BD
:105A100044AE302306F8413DFEF752BFCDF834B016
:105A200034AEFEF750BF25EAE5730E9709930D9546
:105A3000834613909DF87F70FEF74CBF002B40F318
:105A40008180BBF1000F46D1079AD10743D41A4693
:105A50000D9223EAE373C3E5119B472B7FF48FADCF
:105A6000079BDC073FF592AE259B472FA3EB060370
:105A700012933FF4EDAE219B1CE727AA08990A98E0
:105A800003F0C2F800287EF43BAE219D299C289BA0
:105A90000DF1D0091FE6A0460025FEF777BD0E9751
:105AA00017460FE4169A139B134467220D93119225
:105AB00023EAE37394E5303330228DF88F308DF88C
:105AC0008E2024AB32E7259B6DE53C4E3C4B9DF888
:105AD0007F70FFF73DB9139B169A9D1805EB0B03DA
