:020000040800F2
:100000000000022099030008DF030008E103000854
:10001000E3030008E5030008E70300080000000010
:10002000000000000000000000000000E9030008DC
:10003000EB03000800000000ED030008EF030008D8
:10004000F3030008F5030008F7030008F9030008AC
:10005000FB030008FD030008FF030008010400087B
:100060000304000805040008070400080904000848
:100070000B0400080D0400080F0400081104000818
:1000800013040008150400081704000819040008E8
:100090001B0400081D0400081F04000821040008B8
:1000A0002304000825040008270400082904000888
:1000B0002B0400082D0400082F0400083104000858
:1000C0003304000835040008370400083904000828
:1000D0003B0400083D0400083F04000841040008F8
:1000E00043040008450400084704000849040008C8
:1000F0004B0400084D0400084F0400085104000898
:100100005304000855040008570400085904000867
:100110005B0400085D0400085F0400086104000837
:100120006304000865040008670400086904000807
:100130006B04000800000000000000006D040008CF
:100140006F040008710400087304000875040008B7
:1001500077040008790400087B0400087D04000887
:100160007F04000881040008830400088504000857
:1001700087040008890400088B04000800000000C0
:10018000000000008D0400080000000000000000D6
:100190008F04000800000000000000009104000827
:1001A00000000000000000000000000093040008B0
:1001B0009504000897040008990400089B040008AF
:1001C0009D04000810B5054C237833B9044B13B1D6
:1001D0000448AFF300800123237010BD6C000020A1
:1001E00000000000D4060008084B10B51BB10849F8
:1001F0000848AFF300800848036803B910BD074BF7
:10020000002BFBD0BDE81040184700BF00000000E5
:1002100070000020D40600086C00002000000000E0
:10022000154B002B08BF134B9D46A3F5803A0021C8
:100230008B460F461348144A121A00F021FA0F4B4E
:10024000002B00D098470E4B002B00D09847002081
:10025000002104000D000D48002802D00C48AFF327
:10026000008000F0E7F92000290000F08DF800F090
:10027000CDF900BF000008000000022000000000CF
:10028000000000006C0000208A0000200000000038
:100290000000000080B400AF1B4A1B4B1B6B43F0F7
:1002A00002031363184A184B1B6B43F004031363D8
:1002B000164A164B1B6823F47F5323F03F03136049
:1002C000124A124B1B6843F4AA5343F01503136000
:1002D0000E4A0E4BDB6823F47F5323F03F03D360B9
:1002E0000B4A0B4B1B6823F040631360084A084B12
:1002F000DB6823F04063D360044BC0225A6100BF27
:10030000BD465DF8047B704700380240000402409F
:100310000008024080B400AF154B1B68002B17D1BA
:10032000144B1B8801339AB2124B1A80114B1B8855
:1003300003F00F039AB20F4B1A800F4B0D4A12882D
:1003400011460E4A32F811205A61094B0C4A1A60C4
:100350000C4B1B6903F40053002B04D0044B1B68A7
:10036000013B034A136000BFBD465DF8047B704744
:10037000000000208800002000040240AC060008B5
:10038000404B4C000008024080B500AFFFF782FFF1
:10039000FFF7C0FFFCE700BF0649074A074B9A4238
:1003A000BEBF51F8040B42F8040BF8E7044880473D
:1003B00004480047E0060008000000206C00002010
:1003C000A9040008210200083549364A002301E04B
:1003D00041F8043B9142FBD3FFF7D6FFFEE7FEE76F
:1003E000FEE7FEE7FEE7FEE7FEE7FEE7FEE7FEE7E5
:1003F000FEE7FEE7FEE7FEE7FEE7FEE7FEE7FEE7D5
:10040000FEE7FEE7FEE7FEE7FEE7FEE7FEE7FEE7C4
:10041000FEE7FEE7FEE7FEE7FEE7FEE7FEE7FEE7B4
:10042000FEE7FEE7FEE7FEE7FEE7FEE7FEE7FEE7A4
:10043000FEE7FEE7FEE7FEE7FEE7FEE7FEE7FEE794
:10044000FEE7FEE7FEE7FEE7FEE7FEE7FEE7FEE784
:10045000FEE7FEE7FEE7FEE7FEE7FEE7FEE7FEE774
:10046000FEE7FEE7FEE7FEE7FEE7FEE7FEE7FEE764
:10047000FEE7FEE7FEE7FEE7FEE7FEE7FEE7FEE754
:10048000FEE7FEE7FEE7FEE7FEE7FEE7FEE7FEE744
:10049000FEE7FEE7FEE7FEE7FEE7FEE7FEE7000019
:1004A0006C0000208A00002080B500AF164A164B71
:1004B000D3F8883043F47003C2F88830134A134BE2
:1004C0001B6843F001031360104B00229A600F4A2F
:1004D0000E4B1B6823F0847323F4803313600B4BA3
:1004E0000B4A5A60094A094B1B6823F480231360A6
:1004F000064B0022DA6000F00DF8034B4FF000626B
:100500009A6000BF80BD00BF00ED00E000380240EF
:100510001030002480B483B000AF00237B60002340
:100520003B60364A354B1B6843F480331360334BD2
:100530001B6803F400333B607B6801337B603B68DE
:10054000002B03D17B68B3F5C06FF0D12B4B1B6838
:1005500003F40033002B02D001233B6001E00023B1
:100560003B603B68012B42D1244A244B1B6C43F077
:1005700080531364224A224B1B6843F48043136068
:100580001E4A1E4B9B6893601C4A1C4B9B6843F49D
:1005900000439360194A194B9B6843F4A05393603E
:1005A000164B184A5A60154A144B1B6843F0807367
:1005B000136000BF114B1B6803F00073002BF9D0D0
:1005C000114B40F205721A600C4A0C4B9B6823F0E9
:1005D00003039360094A094B9B6843F0020393604D
:1005E00000BF064B9B6803F00C03082BF9D100BF3A
:1005F0000C37BD465DF8047B704700BF00380240F1
:100600000070004019544007003C024008B5074BF9
:10061000044613B10021AFF30080054B1868836ACC
:1006200003B19847204600F033F800BF00000000F7
:10063000D006000870B50E4B0E4CE41AA41000252D
:100640001E46A54204D056F8253098470135F8E7F4
:1006500000F020F8084C094BE41AA41000251E46AF
:10066000A54204D056F8253098470135F8E770BD0B
:100670006400002064000020680000206400002066
:1006800002440346934202D003F8011BFAE7704785
:10069000FEE70000F8B500BFF8BC08BC9E467047F6
:1006A000F8B500BFF8BC08BC9E467047C000F90012
:1006B000A400B000990092008200F8008000900031
:1006C00088008300C600A10086008E004300000061
:0806D0000400002000000000FE
:0806D80048FBFF7F0100000058
:1006E000404B4C0000000000000000000000000033
:1006F00000000000000000000000000000000000FA
:1007000000000000CC06000800000000000000000F
:1007100000000000000000000000000000000000D9
:1007200000000000000000000000000000000000C9
:1007300000000000000000000000000000000000B9
:0C07400000000000E9010008C5010008ED
:0400000508000000EF
:00000001FF
